{
  "contractName": "BadAuction",
  "abi": [
    {
      "constant": true,
      "inputs": [],
      "name": "getHighestBidder",
      "outputs": [
        {
          "name": "",
          "type": "address"
        }
      ],
      "payable": false,
      "stateMutability": "view",
      "type": "function"
    },
    {
      "constant": true,
      "inputs": [],
      "name": "getHighestBid",
      "outputs": [
        {
          "name": "",
          "type": "uint256"
        }
      ],
      "payable": false,
      "stateMutability": "view",
      "type": "function"
    },
    {
      "payable": true,
      "stateMutability": "payable",
      "type": "fallback"
    },
    {
      "constant": false,
      "inputs": [],
      "name": "bid",
      "outputs": [
        {
          "name": "",
          "type": "bool"
        }
      ],
      "payable": true,
      "stateMutability": "payable",
      "type": "function"
    },
    {
      "constant": false,
      "inputs": [],
      "name": "reduceBid",
      "outputs": [],
      "payable": false,
      "stateMutability": "nonpayable",
      "type": "function"
    }
  ],
  "bytecode": "0x6060604052341561000f57600080fd5b6105908061001e6000396000f300606060405260043610610061576000357c0100000000000000000000000000000000000000000000000000000000900463ffffffff1680623495a4146100a3578063057ae235146100f85780631998aeef1461010d5780634979440a1461012f575b3373ffffffffffffffffffffffffffffffffffffffff166108fc349081150290604051600060405180830381858888f1935050505015156100a157600080fd5b005b34156100ae57600080fd5b6100b6610158565b604051808273ffffffffffffffffffffffffffffffffffffffff1673ffffffffffffffffffffffffffffffffffffffff16815260200191505060405180910390f35b341561010357600080fd5b61010b610181565b005b6101156101fd565b604051808215151515815260200191505060405180910390f35b341561013a57600080fd5b6101426103ca565b6040518082815260200191505060405180910390f35b60008060009054906101000a900473ffffffffffffffffffffffffffffffffffffffff16905090565b60006001541015156101fb5760018054036001819055506000809054906101000a900473ffffffffffffffffffffffffffffffffffffffff1673ffffffffffffffffffffffffffffffffffffffff166108fc60019081150290604051600060405180830381858888f1935050505015156101fa57600080fd5b5b565b60008060009050600154341115610333576040805190810160405280600154815260200160011515815250600260008060009054906101000a900473ffffffffffffffffffffffffffffffffffffffff1673ffffffffffffffffffffffffffffffffffffffff1673ffffffffffffffffffffffffffffffffffffffff1681526020019081526020016000206000820151816000015560208201518160010160006101000a81548160ff0219169083151502179055509050506000809054906101000a900473ffffffffffffffffffffffffffffffffffffffff16905034600181905550336000806101000a81548173ffffffffffffffffffffffffffffffffffffffff021916908373ffffffffffffffffffffffffffffffffffffffff160217905550610329816103d4565b50600191506103c6565b604080519081016040528034815260200160011515815250600260003373ffffffffffffffffffffffffffffffffffffffff1673ffffffffffffffffffffffffffffffffffffffff1681526020019081526020016000206000820151816000015560208201518160010160006101000a81548160ff0219169083151502179055509050506103c0336103d4565b50600091505b5090565b6000600154905090565b600080600260008473ffffffffffffffffffffffffffffffffffffffff1673ffffffffffffffffffffffffffffffffffffffff16815260200190815260200160002060010160009054906101000a900460ff161561055957600260008473ffffffffffffffffffffffffffffffffffffffff1673ffffffffffffffffffffffffffffffffffffffff1681526020019081526020016000206000015490506000600260008573ffffffffffffffffffffffffffffffffffffffff1673ffffffffffffffffffffffffffffffffffffffff168152602001908152602001600020600001819055506000600260008573ffffffffffffffffffffffffffffffffffffffff1673ffffffffffffffffffffffffffffffffffffffff16815260200190815260200160002060010160006101000a81548160ff0219169083151502179055508273ffffffffffffffffffffffffffffffffffffffff166108fc829081150290604051600060405180830381858888f193505050501515610558576000915061055e565b5b600091505b509190505600a165627a7a723058208ce004261c05cd7a728bb6cc8b872c05f721084bc58368539c14e777c1725d350029",
  "source": "pragma solidity 0.4.19;\n\nimport \"./AuctionInterface.sol\";\n\n/** @title BadAuction */\ncontract BadAuction is AuctionInterface {\n\n    struct Refund {\n        uint funds;\n        bool initialized;\n    }\n\n    mapping(address => Refund) refunds;\n/* Bid function, vulnerable to reentrency attack.\n    * Must return true on successful send and/or bid,\n    * bidder reassignment\n    * Must return false on failure and send people\n    * their funds back\n    */\n\n    function bid() external payable returns (bool) {\n        // YOUR CODE HERE\n\n        // reentrency attack, this function can be called again before\n        // the first invocation of the function was finished\n        address lastHighestBidder = 0;\n        if (msg.value > highestBid) {\n            refunds[highestBidder] = Refund(highestBid, true); \n            lastHighestBidder = highestBidder; \n            highestBid = msg.value;\n            highestBidder = msg.sender; \n            refund(lastHighestBidder);\n            return true;\n        } else {\n            refunds[msg.sender] = Refund(msg.value, true); \n            refund(msg.sender);\n            return false;\n        }\n        \n    }\n    \n    function refund(address addrs) private returns (bool) {\n        if (refunds[addrs].initialized) {\n            uint funds = refunds[addrs].funds;\n            refunds[addrs].funds = 0;\n            refunds[addrs].initialized = false;\n            if (!addrs.send(funds)) {\n                return false;\n            }\n        }\n        return false;\n    }\n    \n    /* \tReduce bid function. Vulnerable to attack.\n        Allows current highest bidder to reduce \n        their bid by 1. Do NOT make changes here.\n        Instead notice the vulnerabilities, and\n        implement the function properly in GoodAuction.sol  */\n\n    function reduceBid() external {\n        if (highestBid >= 0) {\n            highestBid = highestBid - 1;\n            require(highestBidder.send(1));\n        } \n    }\n\n    // underflow and check only the highestbidder is reducing\n    modifier canReduce() {\n        require(highestBidder == msg.sender);\n        _;\n    }\n\n    /* in any situation a bidder with a lower or the same bid\n    than the current higgest bidder shiuld have not effect on the contract */\n    modifier bidIsAccepted() {\n        \n        _;\n    }\n\n\n    /* \tRemember this fallback function\n        gets invoked if somebody calls a\n        function that does not exist in this\n        contract. But we're good people so we don't\n        want to profit on people's mistakes.\n        How do we send people their money back?  */\n\n    function () payable {\n        // YOUR CODE HERE\n        msg.sender.transfer(msg.value);\n    }\n\n}",
  "sourcePath": "/mnt/c/Users/esteb/Documents/BaB/BlockchainForDevelopers/sp18-lab03/contracts/BadAuction.sol",
  "compiler": {
    "name": "solc",
    "version": "0.4.19+commit.c4cbbb05.Emscripten.clang"
  },
  "schemaVersion": "1.0.1",
  "updatedAt": "2018-03-01T20:47:43.609Z"
}