{
  "contractName": "GoodAuction",
  "abi": [
    {
      "constant": true,
      "inputs": [],
      "name": "getHighestBidder",
      "outputs": [
        {
          "name": "",
          "type": "address"
        }
      ],
      "payable": false,
      "stateMutability": "view",
      "type": "function"
    },
    {
      "constant": true,
      "inputs": [],
      "name": "getHighestBid",
      "outputs": [
        {
          "name": "",
          "type": "uint256"
        }
      ],
      "payable": false,
      "stateMutability": "view",
      "type": "function"
    },
    {
      "payable": true,
      "stateMutability": "payable",
      "type": "fallback"
    },
    {
      "constant": false,
      "inputs": [],
      "name": "bid",
      "outputs": [
        {
          "name": "",
          "type": "bool"
        }
      ],
      "payable": true,
      "stateMutability": "payable",
      "type": "function"
    },
    {
      "constant": false,
      "inputs": [],
      "name": "withdrawRefund",
      "outputs": [
        {
          "name": "",
          "type": "bool"
        }
      ],
      "payable": false,
      "stateMutability": "nonpayable",
      "type": "function"
    },
    {
      "constant": true,
      "inputs": [],
      "name": "getMyBalance",
      "outputs": [
        {
          "name": "",
          "type": "uint256"
        }
      ],
      "payable": false,
      "stateMutability": "view",
      "type": "function"
    },
    {
      "constant": false,
      "inputs": [],
      "name": "reduceBid",
      "outputs": [],
      "payable": false,
      "stateMutability": "nonpayable",
      "type": "function"
    }
  ],
  "bytecode": "0x6060604052341561000f57600080fd5b6105eb8061001e6000396000f300606060405260043610610077576000357c0100000000000000000000000000000000000000000000000000000000900463ffffffff1680623495a4146100b9578063057ae2351461010e578063110f8874146101235780631998aeef146101505780634979440a146101725780634c7389091461019b575b3373ffffffffffffffffffffffffffffffffffffffff166108fc349081150290604051600060405180830381858888f1935050505015156100b757600080fd5b005b34156100c457600080fd5b6100cc6101c4565b604051808273ffffffffffffffffffffffffffffffffffffffff1673ffffffffffffffffffffffffffffffffffffffff16815260200191505060405180910390f35b341561011957600080fd5b6101216101ed565b005b341561012e57600080fd5b6101366102d6565b604051808215151515815260200191505060405180910390f35b61015861034f565b604051808215151515815260200191505060405180910390f35b341561017d57600080fd5b6101856104db565b6040518082815260200191505060405180910390f35b34156101a657600080fd5b6101ae6104e5565b6040518082815260200191505060405180910390f35b60008060009054906101000a900473ffffffffffffffffffffffffffffffffffffffff16905090565b3373ffffffffffffffffffffffffffffffffffffffff166000809054906101000a900473ffffffffffffffffffffffffffffffffffffffff1673ffffffffffffffffffffffffffffffffffffffff1614801561024b57506000600154115b801561025c57506000600180540310155b156102d4576000809054906101000a900473ffffffffffffffffffffffffffffffffffffffff1673ffffffffffffffffffffffffffffffffffffffff166108fc60019081150290604051600060405180830381858888f1935050505015156102c357600080fd5b600180600082825403925050819055505b565b6000600260003373ffffffffffffffffffffffffffffffffffffffff1673ffffffffffffffffffffffffffffffffffffffff16815260200190815260200160002060010160009054906101000a900460ff168015610338575061033761052f565b5b1515610347576000905061034c565b600190505b90565b60006001543411156104d35760008060009054906101000a900473ffffffffffffffffffffffffffffffffffffffff1673ffffffffffffffffffffffffffffffffffffffff1614151561048357600154600260008060009054906101000a900473ffffffffffffffffffffffffffffffffffffffff1673ffffffffffffffffffffffffffffffffffffffff1673ffffffffffffffffffffffffffffffffffffffff168152602001908152602001600020600001819055506001600260008060009054906101000a900473ffffffffffffffffffffffffffffffffffffffff1673ffffffffffffffffffffffffffffffffffffffff1673ffffffffffffffffffffffffffffffffffffffff16815260200190815260200160002060010160006101000a81548160ff0219169083151502179055505b34600181905550336000806101000a81548173ffffffffffffffffffffffffffffffffffffffff021916908373ffffffffffffffffffffffffffffffffffffffff160217905550600190506104d8565b600090505b90565b6000600154905090565b6000600260003373ffffffffffffffffffffffffffffffffffffffff1673ffffffffffffffffffffffffffffffffffffffff16815260200190815260200160002060000154905090565b60003373ffffffffffffffffffffffffffffffffffffffff166108fc600260003373ffffffffffffffffffffffffffffffffffffffff1673ffffffffffffffffffffffffffffffffffffffff168152602001908152602001600020600001549081150290604051600060405180830381858888f1935050505015156105b757600090506105bc565b600190505b905600a165627a7a72305820ea0b28dde2768973d2c5eeba7c886808e5c1a1ed7e809a89b99f0aa2eb659b760029",
  "source": "pragma solidity 0.4.19;\n\nimport \"./AuctionInterface.sol\";\n\n/** @title GoodAuction */\ncontract GoodAuction is AuctionInterface {\n\n    /* New data structure, keeps track of refunds owed */\n    struct Refund {\n        uint funds;\n        bool initialized;\n    }\n\n    mapping(address => Refund) refunds;\n\n    /* \tBid function, now shifted to pull paradigm\n    Must return true on successful send and/or bid, bidder\n    reassignment. Must return false on failure and \n    allow people to retrieve their funds  */\n\n\n    function bid() payable external returns(bool) {\n\n        // higher bid should displace last highest bid \n        // if previous higher bidder were not poisoned\n\n        // Be able to displace the previous highest bidder \n        // if bidding at a good auction\n\n        // Not be able to displace the previous highest bidder \n        // if bidding on a bad auction and the previous highest bidder was poisoned\n        if (msg.value > highestBid) {\n            if (highestBidder != 0) {\n                refunds[highestBidder].funds = highestBid; \n                refunds[highestBidder].initialized = true; \n            }\n\n            highestBid = msg.value;\n            highestBidder = msg.sender; \n            return true;\n        } else {\n            return false;\n        }\n    }\n\n    // pull over push transactions\n    function returnFunds() private returns (bool) {\n        if (!msg.sender.send(msg.value)) {\n            return false;\n        }\n        return true;\n    }\n\n    /*  Implement withdraw function to complete new \n    pull paradigm. Returns true on successful \n    return of owed funds and false on failure\n    or no funds owed.  */\n    function withdrawRefund() external returns(bool) {\n        // YOUR CODE HERE\n        if (!(refunds[msg.sender].initialized && returnFund())) {\n            return false;\n        }\n        return true;\n    }\n\n    function returnFund() private returns (bool) {\n        if (!msg.sender.send(refunds[msg.sender].funds)) {\n            return false;\n        }\n        return true;\n    }\n\n    /*  Allow users to check the amount they are owed\n    before calling withdrawRefund(). Function returns\n    amount owed.  */\n    function getMyBalance() external constant  returns(uint) {\n        return refunds[msg.sender].funds;\n    }\n\n    /* in any situation a bidder with a lower or the same bid\n    than the current higgest bidder shiuld have not effect on the contract */\n    modifier bidIsAccepted() {\n        require(msg.value > highestBid);\n        _;\n    }\n\n    /* \tConsider implementing this modifier\n    and applying it to the reduceBid function \n    you fill in below. */\n\n    // underflow and check only the highestbidder is reducing\n    modifier canReduce() {\n        require(msg.sender == highestBidder);\n        _;\n    }\n\n\n    /*  Rewrite reduceBid from BadAuction to fix\n    the security vulnerabilities. Should allow the\n    current highest bidder only to reduce their bid amount */\n\n    // should be protected against underflow\n\n    function reduceBid() external {\n        // bad auction doesn't check for the send to decrease bid\n        if (highestBidder == msg.sender && highestBid > 0 && highestBid - 1 >= 0) {\n            highestBidder.transfer(1);\n            highestBid -= 1;\n        }\n    }\n\n\n    /* \tRemember this fallback function\n    gets invoked if somebody calls a\n    function that does not exist in this\n    contract. But we're good people so we don't\n    want to profit on people's mistakes.\n    How do we send people their money back?  */\n\n    function () payable {\n        msg.sender.transfer(msg.value);\n    }\n\n}\n",
  "sourcePath": "/mnt/c/Users/esteb/Documents/BaB/BlockchainForDevelopers/sp18-lab03/contracts/GoodAuction.sol",
  "compiler": {
    "name": "solc",
    "version": "0.4.19+commit.c4cbbb05.Emscripten.clang"
  },
  "schemaVersion": "1.0.1",
  "updatedAt": "2018-03-01T09:17:31.344Z"
}