{
  "contractName": "NotPoisoned",
  "abi": [
    {
      "inputs": [],
      "payable": true,
      "stateMutability": "payable",
      "type": "constructor"
    },
    {
      "payable": true,
      "stateMutability": "payable",
      "type": "fallback"
    },
    {
      "constant": false,
      "inputs": [
        {
          "name": "amount",
          "type": "uint256"
        }
      ],
      "name": "bid",
      "outputs": [],
      "payable": false,
      "stateMutability": "nonpayable",
      "type": "function"
    },
    {
      "constant": false,
      "inputs": [],
      "name": "reduceBid",
      "outputs": [],
      "payable": false,
      "stateMutability": "nonpayable",
      "type": "function"
    },
    {
      "constant": false,
      "inputs": [
        {
          "name": "auction",
          "type": "address"
        }
      ],
      "name": "setTarget",
      "outputs": [],
      "payable": false,
      "stateMutability": "nonpayable",
      "type": "function"
    },
    {
      "constant": true,
      "inputs": [],
      "name": "getTarget",
      "outputs": [
        {
          "name": "",
          "type": "address"
        }
      ],
      "payable": false,
      "stateMutability": "view",
      "type": "function"
    },
    {
      "constant": true,
      "inputs": [],
      "name": "getBalance",
      "outputs": [
        {
          "name": "",
          "type": "uint256"
        }
      ],
      "payable": false,
      "stateMutability": "view",
      "type": "function"
    }
  ],
  "bytecode": "0x6060604052610470806100136000396000f30060606040526004361061006d576000357c0100000000000000000000000000000000000000000000000000000000900463ffffffff168063057ae2351461006f57806312065fe014610084578063454a2ab3146100ad578063776d1a01146100d0578063f00e6a2a14610109575b005b341561007a57600080fd5b61008261015e565b005b341561008f57600080fd5b610097610255565b6040518082815260200191505060405180910390f35b34156100b857600080fd5b6100ce6004808035906020019091905050610274565b005b34156100db57600080fd5b610107600480803573ffffffffffffffffffffffffffffffffffffffff169060200190919050506103a2565b005b341561011457600080fd5b61011c61041b565b604051808273ffffffffffffffffffffffffffffffffffffffff1673ffffffffffffffffffffffffffffffffffffffff16815260200191505060405180910390f35b60008073ffffffffffffffffffffffffffffffffffffffff166000809054906101000a900473ffffffffffffffffffffffffffffffffffffffff1673ffffffffffffffffffffffffffffffffffffffff16141515610252576000809054906101000a900473ffffffffffffffffffffffffffffffffffffffff1690508073ffffffffffffffffffffffffffffffffffffffff1663057ae2356040518163ffffffff167c0100000000000000000000000000000000000000000000000000000000028152600401600060405180830381600087803b151561023d57600080fd5b6102c65a03f1151561024e57600080fd5b5050505b50565b60003073ffffffffffffffffffffffffffffffffffffffff1631905090565b60003073ffffffffffffffffffffffffffffffffffffffff163182111580156102eb5750600073ffffffffffffffffffffffffffffffffffffffff166000809054906101000a900473ffffffffffffffffffffffffffffffffffffffff1673ffffffffffffffffffffffffffffffffffffffff1614155b1561039e576000809054906101000a900473ffffffffffffffffffffffffffffffffffffffff1690508073ffffffffffffffffffffffffffffffffffffffff16631998aeef836000604051602001526040518263ffffffff167c01000000000000000000000000000000000000000000000000000000000281526004016020604051808303818588803b151561038057600080fd5b6125ee5a03f1151561039157600080fd5b5050505060405180519050505b5050565b3073ffffffffffffffffffffffffffffffffffffffff168173ffffffffffffffffffffffffffffffffffffffff1614151561041857806000806101000a81548173ffffffffffffffffffffffffffffffffffffffff021916908373ffffffffffffffffffffffffffffffffffffffff1602179055505b50565b60008060009054906101000a900473ffffffffffffffffffffffffffffffffffffffff169050905600a165627a7a7230582060cc01c5697b197cf09deae70e4c847a732ab69bf4b7f398eeea2de8f8746ff00029",
  "source": "pragma solidity 0.4.19;\n\nimport \"./AuctionInterface.sol\";\n\n/** @title NotPoisoned */\ncontract NotPoisoned {\n\n    address target;\n\n    /* Constructor */\n    function NotPoisoned() payable {}\n\n    /* Bid function */\n    function bid(uint amount) external {\n        if ((amount <= this.balance) && (target != address(0))) {\n            AuctionInterface _target = AuctionInterface(target);\n            _target.bid.value(amount)();\n        }\n    }\n\n    function reduceBid() external {\n        if (target != address(0)) {\n            AuctionInterface _target = AuctionInterface(target);\n            _target.reduceBid();    \n        }\n    }\n\n    function setTarget(address auction) external {\n        if (auction != address(this)) {\n            target = auction;\n        }\n    }\n\n    function getTarget() constant returns (address) {\n        return target;\n    }\n\n    function getBalance() constant returns (uint) {\n        return this.balance;\n    }\n\n    function() payable {}\n}\n",
  "sourcePath": "/mnt/c/Users/esteb/Documents/BaB/BlockchainForDevelopers/sp18-lab03/contracts/NotPoisoned.sol",
  "compiler": {
    "name": "solc",
    "version": "0.4.19+commit.c4cbbb05.Emscripten.clang"
  },
  "schemaVersion": "1.0.1",
  "updatedAt": "2018-03-01T09:17:31.346Z"
}